{
  "contractName": "PostList",
  "abi": [
    {
      "inputs": [],
      "name": "postCount",
      "outputs": [
        {
          "internalType": "uint256",
          "name": "",
          "type": "uint256"
        }
      ],
      "stateMutability": "view",
      "type": "function",
      "constant": true
    },
    {
      "inputs": [
        {
          "internalType": "uint256",
          "name": "",
          "type": "uint256"
        }
      ],
      "name": "posts",
      "outputs": [
        {
          "internalType": "uint256",
          "name": "id",
          "type": "uint256"
        },
        {
          "internalType": "string",
          "name": "author",
          "type": "string"
        },
        {
          "internalType": "string",
          "name": "body",
          "type": "string"
        }
      ],
      "stateMutability": "view",
      "type": "function",
      "constant": true
    },
    {
      "inputs": [
        {
          "internalType": "string",
          "name": "_author",
          "type": "string"
        },
        {
          "internalType": "string",
          "name": "_body",
          "type": "string"
        }
      ],
      "name": "createPost",
      "outputs": [],
      "stateMutability": "nonpayable",
      "type": "function"
    }
  ],
  "bytecode": "0x60806040526000805534801561001457600080fd5b50610763806100246000396000f3fe608060405234801561001057600080fd5b50600436106100415760003560e01c80630b1e7f831461004657806317906c2e14610078578063392338f514610096575b600080fd5b610060600480360381019061005b9190610372565b6100b2565b60405161006f93929190610447565b60405180910390f35b6100806101ec565b60405161008d919061048c565b60405180910390f35b6100b060048036038101906100ab91906105dc565b6101f2565b005b60016020528060005260406000206000915090508060000154908060010180546100db90610683565b80601f016020809104026020016040519081016040528092919081815260200182805461010790610683565b80156101545780601f1061012957610100808354040283529160200191610154565b820191906000526020600020905b81548152906001019060200180831161013757829003601f168201915b50505050509080600201805461016990610683565b80601f016020809104026020016040519081016040528092919081815260200182805461019590610683565b80156101e25780601f106101b7576101008083540402835291602001916101e2565b820191906000526020600020905b8154815290600101906020018083116101c557829003601f168201915b5050505050905083565b60005481565b600080815480929190610204906106e4565b919050555060405180606001604052806000548152602001838152602001828152506001600080548152602001908152602001600020600082015181600001556020820151816001019080519060200190610260929190610285565b50604082015181600201908051906020019061027d929190610285565b509050505050565b82805461029190610683565b90600052602060002090601f0160209004810192826102b357600085556102fa565b82601f106102cc57805160ff19168380011785556102fa565b828001600101855582156102fa579182015b828111156102f95782518255916020019190600101906102de565b5b509050610307919061030b565b5090565b5b8082111561032457600081600090555060010161030c565b5090565b6000604051905090565b600080fd5b600080fd5b6000819050919050565b61034f8161033c565b811461035a57600080fd5b50565b60008135905061036c81610346565b92915050565b60006020828403121561038857610387610332565b5b60006103968482850161035d565b91505092915050565b6103a88161033c565b82525050565b600081519050919050565b600082825260208201905092915050565b60005b838110156103e85780820151818401526020810190506103cd565b838111156103f7576000848401525b50505050565b6000601f19601f8301169050919050565b6000610419826103ae565b61042381856103b9565b93506104338185602086016103ca565b61043c816103fd565b840191505092915050565b600060608201905061045c600083018661039f565b818103602083015261046e818561040e565b90508181036040830152610482818461040e565b9050949350505050565b60006020820190506104a1600083018461039f565b92915050565b600080fd5b600080fd5b7f4e487b7100000000000000000000000000000000000000000000000000000000600052604160045260246000fd5b6104e9826103fd565b810181811067ffffffffffffffff82111715610508576105076104b1565b5b80604052505050565b600061051b610328565b905061052782826104e0565b919050565b600067ffffffffffffffff821115610547576105466104b1565b5b610550826103fd565b9050602081019050919050565b82818337600083830152505050565b600061057f61057a8461052c565b610511565b90508281526020810184848401111561059b5761059a6104ac565b5b6105a684828561055d565b509392505050565b600082601f8301126105c3576105c26104a7565b5b81356105d384826020860161056c565b91505092915050565b600080604083850312156105f3576105f2610332565b5b600083013567ffffffffffffffff81111561061157610610610337565b5b61061d858286016105ae565b925050602083013567ffffffffffffffff81111561063e5761063d610337565b5b61064a858286016105ae565b9150509250929050565b7f4e487b7100000000000000000000000000000000000000000000000000000000600052602260045260246000fd5b6000600282049050600182168061069b57607f821691505b602082108114156106af576106ae610654565b5b50919050565b7f4e487b7100000000000000000000000000000000000000000000000000000000600052601160045260246000fd5b60006106ef8261033c565b91507fffffffffffffffffffffffffffffffffffffffffffffffffffffffffffffffff821415610722576107216106b5565b5b60018201905091905056fea2646970667358221220445824c22b0ffa0af25847a04d687404ee35625510c66d6fb6a2b5a41466cea764736f6c634300080b0033",
  "immutableReferences": {},
  "source": "// SPDX-License-Identifier: MIT\r\npragma solidity >=0.4.22 <0.9.0;\r\ncontract PostList {\r\n    uint public postCount = 0;\r\n\r\n    struct Post {\r\n        uint id;\r\n        string author;\r\n        string body;\r\n    }\r\n\r\n    mapping(uint => Post) public posts;\r\n\r\n    function createPost(string memory _author, string memory _body) public {\r\n        postCount ++;\r\n        posts[postCount] = Post(postCount, _author, _body);\r\n    }\r\n}",
  "sourcePath": "C:\\Users\\Drew\\Documents\\sait\\2022winter\\intp362\\blog1\\contracts\\PostList.sol",
  "compiler": {
    "name": "solc",
    "version": "0.8.11+commit.d7f03943.Emscripten.clang"
  },
  "schemaVersion": "3.4.4",
  "updatedAt": "2022-02-18T03:04:12.163Z",
  "networkType": "ethereum",
  "devdoc": {
    "kind": "dev",
    "methods": {},
    "version": 1
  },
  "userdoc": {
    "kind": "user",
    "methods": {},
    "version": 1
  }
}